{
  "_format": "hh-sol-artifact-1",
  "contractName": "ExchangePool",
  "sourceName": "contracts/Pool.sol",
  "abi": [
    {
      "inputs": [
        {
          "internalType": "address",
          "name": "_creator",
          "type": "address"
        },
        {
          "internalType": "address",
          "name": "_buyToken",
          "type": "address"
        },
        {
          "internalType": "address",
          "name": "_sellToken",
          "type": "address"
        },
        {
          "internalType": "uint256",
          "name": "_raiseAmount",
          "type": "uint256"
        },
        {
          "internalType": "uint256",
          "name": "_price",
          "type": "uint256"
        },
        {
          "internalType": "uint256",
          "name": "_startTime",
          "type": "uint256"
        },
        {
          "internalType": "uint256",
          "name": "_endTime",
          "type": "uint256"
        }
      ],
      "stateMutability": "nonpayable",
      "type": "constructor"
    },
    {
      "anonymous": false,
      "inputs": [
        {
          "indexed": false,
          "internalType": "string",
          "name": "msg",
          "type": "string"
        }
      ],
      "name": "LogMsg",
      "type": "event"
    },
    {
      "anonymous": false,
      "inputs": [
        {
          "indexed": false,
          "internalType": "address",
          "name": "user",
          "type": "address"
        },
        {
          "indexed": false,
          "internalType": "uint256",
          "name": "amount",
          "type": "uint256"
        }
      ],
      "name": "SwapMsg",
      "type": "event"
    },
    {
      "inputs": [
        {
          "internalType": "address",
          "name": "",
          "type": "address"
        }
      ],
      "name": "balances",
      "outputs": [
        {
          "internalType": "uint256",
          "name": "",
          "type": "uint256"
        }
      ],
      "stateMutability": "view",
      "type": "function"
    },
    {
      "inputs": [],
      "name": "getBalance",
      "outputs": [
        {
          "internalType": "uint256",
          "name": "",
          "type": "uint256"
        }
      ],
      "stateMutability": "view",
      "type": "function"
    },
    {
      "inputs": [],
      "name": "getSwapInfo",
      "outputs": [
        {
          "components": [
            {
              "internalType": "address",
              "name": "user",
              "type": "address"
            },
            {
              "internalType": "uint256",
              "name": "amount",
              "type": "uint256"
            },
            {
              "internalType": "uint256",
              "name": "time",
              "type": "uint256"
            }
          ],
          "internalType": "struct ExchangePool.swapInfo[]",
          "name": "",
          "type": "tuple[]"
        },
        {
          "internalType": "bool",
          "name": "",
          "type": "bool"
        }
      ],
      "stateMutability": "view",
      "type": "function"
    },
    {
      "inputs": [
        {
          "internalType": "uint256",
          "name": "",
          "type": "uint256"
        }
      ],
      "name": "swapByIndex",
      "outputs": [
        {
          "internalType": "address",
          "name": "user",
          "type": "address"
        },
        {
          "internalType": "uint256",
          "name": "amount",
          "type": "uint256"
        },
        {
          "internalType": "uint256",
          "name": "time",
          "type": "uint256"
        }
      ],
      "stateMutability": "view",
      "type": "function"
    },
    {
      "inputs": [
        {
          "internalType": "uint256",
          "name": "amount",
          "type": "uint256"
        }
      ],
      "name": "swapSell",
      "outputs": [],
      "stateMutability": "payable",
      "type": "function"
    },
    {
      "inputs": [],
      "name": "withdraw",
      "outputs": [],
      "stateMutability": "nonpayable",
      "type": "function"
    }
  ],
  "bytecode": "0x60806040523480156200001157600080fd5b5060405162002319380380620023198339818101604052810190620000379190620006c1565b86600160006101000a81548173ffffffffffffffffffffffffffffffffffffffff021916908373ffffffffffffffffffffffffffffffffffffffff16021790555085600260006101000a81548173ffffffffffffffffffffffffffffffffffffffff021916908373ffffffffffffffffffffffffffffffffffffffff16021790555084600360006101000a81548173ffffffffffffffffffffffffffffffffffffffff021916908373ffffffffffffffffffffffffffffffffffffffff160217905550836004819055508260058190555081600781905550806008819055506000600360009054906101000a900473ffffffffffffffffffffffffffffffffffffffff1673ffffffffffffffffffffffffffffffffffffffff166370a08231600160009054906101000a900473ffffffffffffffffffffffffffffffffffffffff166040518263ffffffff1660e01b815260040162000197919062000835565b60206040518083038186803b158015620001b057600080fd5b505afa158015620001c5573d6000803e3d6000fd5b505050506040513d601f19601f82011682018060405250810190620001eb91906200076e565b90506200025b6040518060400160405280601681526020017f616464726573732073656c6c20746f6b656e3a20257300000000000000000000815250600360009054906101000a900473ffffffffffffffffffffffffffffffffffffffff166200044860201b62000c691760201c565b620002a76040518060400160405280600781526020017f62616c3a2025640000000000000000000000000000000000000000000000000081525082620004ee60201b62000d051760201c565b620002f36040518060400160405280601081526020017f5f7261697365416d6f756e743a2025640000000000000000000000000000000081525086620004ee60201b62000d051760201c565b6200033f6040518060400160405280600a81526020017f5f70726963653a2025640000000000000000000000000000000000000000000081525085620004ee60201b62000d051760201c565b620003c16040518060400160405280600981526020017f726571756972653a200000000000000000000000000000000000000000000000815250620003ae6127106200039a888a6200059460201b62000da11790919060201c565b620005ac60201b62000db71790919060201c565b8311620005c460201b62000dcd1760201c565b620003f6612710620003e286886200059460201b62000da11790919060201c565b620005ac60201b62000db71790919060201c565b81116200043a576040517f08c379a00000000000000000000000000000000000000000000000000000000081526004016200043190620008ee565b60405180910390fd5b505050505050505062000b11565b620004ea82826040516024016200046192919062000852565b6040516020818303038152906040527f319af333000000000000000000000000000000000000000000000000000000007bffffffffffffffffffffffffffffffffffffffffffffffffffffffff19166020820180517bffffffffffffffffffffffffffffffffffffffffffffffffffffffff83818316178352505050506200066a60201b60201c565b5050565b62000590828260405160240162000507929190620008ba565b6040516020818303038152906040527f9710a9d0000000000000000000000000000000000000000000000000000000007bffffffffffffffffffffffffffffffffffffffffffffffffffffffff19166020820180517bffffffffffffffffffffffffffffffffffffffffffffffffffffffff83818316178352505050506200066a60201b60201c565b5050565b60008183620005a4919062000964565b905092915050565b60008183620005bc91906200092c565b905092915050565b620006668282604051602401620005dd92919062000886565b6040516020818303038152906040527fc3b55635000000000000000000000000000000000000000000000000000000007bffffffffffffffffffffffffffffffffffffffffffffffffffffffff19166020820180517bffffffffffffffffffffffffffffffffffffffffffffffffffffffff83818316178352505050506200066a60201b60201c565b5050565b60008151905060006a636f6e736f6c652e6c6f679050602083016000808483855afa5050505050565b600081519050620006a48162000add565b92915050565b600081519050620006bb8162000af7565b92915050565b600080600080600080600060e0888a031215620006dd57600080fd5b6000620006ed8a828b0162000693565b9750506020620007008a828b0162000693565b9650506040620007138a828b0162000693565b9550506060620007268a828b01620006aa565b9450506080620007398a828b01620006aa565b93505060a06200074c8a828b01620006aa565b92505060c06200075f8a828b01620006aa565b91505092959891949750929550565b6000602082840312156200078157600080fd5b60006200079184828501620006aa565b91505092915050565b620007a581620009c5565b82525050565b620007b681620009d9565b82525050565b6000620007c98262000910565b620007d581856200091b565b9350620007e781856020860162000a0f565b620007f28162000aa3565b840191505092915050565b60006200080c6015836200091b565b9150620008198262000ab4565b602082019050919050565b6200082f8162000a05565b82525050565b60006020820190506200084c60008301846200079a565b92915050565b600060408201905081810360008301526200086e8185620007bc565b90506200087f60208301846200079a565b9392505050565b60006040820190508181036000830152620008a28185620007bc565b9050620008b36020830184620007ab565b9392505050565b60006040820190508181036000830152620008d68185620007bc565b9050620008e7602083018462000824565b9392505050565b600060208201905081810360008301526200090981620007fd565b9050919050565b600081519050919050565b600082825260208201905092915050565b6000620009398262000a05565b9150620009468362000a05565b92508262000959576200095862000a74565b5b828204905092915050565b6000620009718262000a05565b91506200097e8362000a05565b9250817fffffffffffffffffffffffffffffffffffffffffffffffffffffffffffffffff0483118215151615620009ba57620009b962000a45565b5b828202905092915050565b6000620009d282620009e5565b9050919050565b60008115159050919050565b600073ffffffffffffffffffffffffffffffffffffffff82169050919050565b6000819050919050565b60005b8381101562000a2f57808201518184015260208101905062000a12565b8381111562000a3f576000848401525b50505050565b7f4e487b7100000000000000000000000000000000000000000000000000000000600052601160045260246000fd5b7f4e487b7100000000000000000000000000000000000000000000000000000000600052601260045260246000fd5b6000601f19601f8301169050919050565b7f6e6f7420656e6f7567682073656c6c20746f6b656e0000000000000000000000600082015250565b62000ae881620009c5565b811462000af457600080fd5b50565b62000b028162000a05565b811462000b0e57600080fd5b50565b6117f88062000b216000396000f3fe6080604052600436106100555760003560e01c806312065fe01461005a5780631b26c80d1461008557806327e235e3146100b15780633a2891d8146100ee5780633ccfd60b1461012d578063f7618dae14610144575b600080fd5b34801561006657600080fd5b5061006f610160565b60405161007c9190611406565b60405180910390f35b34801561009157600080fd5b5061009a6101a7565b6040516100a89291906112a6565b60405180910390f35b3480156100bd57600080fd5b506100d860048036038101906100d39190610f57565b610347565b6040516100e59190611406565b60405180910390f35b3480156100fa57600080fd5b5061011560048036038101906101109190610fa9565b61035f565b6040516101249392919061126f565b60405180910390f35b34801561013957600080fd5b506101426103a9565b005b61015e60048036038101906101599190610fa9565b610629565b005b6000600b60003373ffffffffffffffffffffffffffffffffffffffff1673ffffffffffffffffffffffffffffffffffffffff16815260200190815260200160002054905090565b60606000806001905060006101bc6000610e69565b905060008167ffffffffffffffff811115610200577f4e487b7100000000000000000000000000000000000000000000000000000000600052604160045260246000fd5b60405190808252806020026020018201604052801561023957816020015b610226610ecc565b81526020019060019003908161021e5790505b5090506000808490505b83811161033757600a60008281526020019081526020016000206040518060600160405290816000820160009054906101000a900473ffffffffffffffffffffffffffffffffffffffff1673ffffffffffffffffffffffffffffffffffffffff1673ffffffffffffffffffffffffffffffffffffffff1681526020016001820154815260200160028201548152505083838151811061030b577f4e487b7100000000000000000000000000000000000000000000000000000000600052603260045260246000fd5b60200260200101819052508180610321906115d2565b925050808061032f906115d2565b915050610243565b5081600195509550505050509091565b600b6020528060005260406000206000915090505481565b600a6020528060005260406000206000915090508060000160009054906101000a900473ffffffffffffffffffffffffffffffffffffffff16908060010154908060020154905083565b60085442116103ed576040517f08c379a00000000000000000000000000000000000000000000000000000000081526004016103e490611366565b60405180910390fd5b600160009054906101000a900473ffffffffffffffffffffffffffffffffffffffff1673ffffffffffffffffffffffffffffffffffffffff163373ffffffffffffffffffffffffffffffffffffffff16141561053757600260009054906101000a900473ffffffffffffffffffffffffffffffffffffffff1673ffffffffffffffffffffffffffffffffffffffff1663a9059cbb33600b60003373ffffffffffffffffffffffffffffffffffffffff1673ffffffffffffffffffffffffffffffffffffffff168152602001908152602001600020546040518363ffffffff1660e01b81526004016104df929190611246565b602060405180830381600087803b1580156104f957600080fd5b505af115801561050d573d6000803e3d6000fd5b505050506040513d601f19601f820116820180604052508101906105319190610f80565b50610627565b600360009054906101000a900473ffffffffffffffffffffffffffffffffffffffff1673ffffffffffffffffffffffffffffffffffffffff1663a9059cbb33600b60003373ffffffffffffffffffffffffffffffffffffffff1673ffffffffffffffffffffffffffffffffffffffff168152602001908152602001600020546040518363ffffffff1660e01b81526004016105d3929190611246565b602060405180830381600087803b1580156105ed57600080fd5b505af1158015610601573d6000803e3d6000fd5b505050506040513d601f19601f820116820180604052508101906106259190610f80565b505b565b600160009054906101000a900473ffffffffffffffffffffffffffffffffffffffff1673ffffffffffffffffffffffffffffffffffffffff163373ffffffffffffffffffffffffffffffffffffffff1614156106ba576040517f08c379a00000000000000000000000000000000000000000000000000000000081526004016106b1906113e6565b60405180910390fd5b80600260009054906101000a900473ffffffffffffffffffffffffffffffffffffffff1673ffffffffffffffffffffffffffffffffffffffff1663dd62ed3e33306040518363ffffffff1660e01b81526004016107189291906111e6565b60206040518083038186803b15801561073057600080fd5b505afa158015610744573d6000803e3d6000fd5b505050506040513d601f19601f820116820180604052508101906107689190610fd2565b10156107a9576040517f08c379a00000000000000000000000000000000000000000000000000000000081526004016107a090611386565b60405180910390fd5b6000600260009054906101000a900473ffffffffffffffffffffffffffffffffffffffff1673ffffffffffffffffffffffffffffffffffffffff166323b872dd3330856040518463ffffffff1660e01b815260040161080a9392919061120f565b602060405180830381600087803b15801561082457600080fd5b505af1158015610838573d6000803e3d6000fd5b505050506040513d601f19601f8201168201806040525081019061085c9190610f80565b90508061089e576040517f08c379a0000000000000000000000000000000000000000000000000000000008152600401610895906113a6565b60405180910390fd5b600360009054906101000a900473ffffffffffffffffffffffffffffffffffffffff1673ffffffffffffffffffffffffffffffffffffffff166323b872dd600160009054906101000a900473ffffffffffffffffffffffffffffffffffffffff163061092961271061091b60055489610da190919063ffffffff16565b610db790919063ffffffff16565b6040518463ffffffff1660e01b81526004016109479392919061120f565b602060405180830381600087803b15801561096157600080fd5b505af1158015610975573d6000803e3d6000fd5b505050506040513d601f19601f820116820180604052508101906109999190610f80565b9050806109db576040517f08c379a00000000000000000000000000000000000000000000000000000000081526004016109d2906113c6565b60405180910390fd5b610a4f82600b6000600160009054906101000a900473ffffffffffffffffffffffffffffffffffffffff1673ffffffffffffffffffffffffffffffffffffffff1673ffffffffffffffffffffffffffffffffffffffff16815260200190815260200160002054610e7790919063ffffffff16565b600b6000600160009054906101000a900473ffffffffffffffffffffffffffffffffffffffff1673ffffffffffffffffffffffffffffffffffffffff1673ffffffffffffffffffffffffffffffffffffffff16815260200190815260200160002081905550610b2e610ae0612710610ad260055486610da190919063ffffffff16565b610db790919063ffffffff16565b600b60003373ffffffffffffffffffffffffffffffffffffffff1673ffffffffffffffffffffffffffffffffffffffff16815260200190815260200160002054610e7790919063ffffffff16565b600b60003373ffffffffffffffffffffffffffffffffffffffff1673ffffffffffffffffffffffffffffffffffffffff16815260200190815260200160002081905550600060405180606001604052803373ffffffffffffffffffffffffffffffffffffffff168152602001848152602001428152509050610bb06000610e8d565b80600a6000610bbf6000610e69565b815260200190815260200160002060008201518160000160006101000a81548173ffffffffffffffffffffffffffffffffffffffff021916908373ffffffffffffffffffffffffffffffffffffffff16021790555060208201518160010155604082015181600201559050507ffc2d02c51e8503683ba013f22fd4ed424857a077f34daf29a2ea3e0fcee0b8ea3384604051610c5c929190611246565b60405180910390a1505050565b610d018282604051602401610c7f9291906112d6565b6040516020818303038152906040527f319af333000000000000000000000000000000000000000000000000000000007bffffffffffffffffffffffffffffffffffffffffffffffffffffffff19166020820180517bffffffffffffffffffffffffffffffffffffffffffffffffffffffff8381831617835250505050610ea3565b5050565b610d9d8282604051602401610d1b929190611336565b6040516020818303038152906040527f9710a9d0000000000000000000000000000000000000000000000000000000007bffffffffffffffffffffffffffffffffffffffffffffffffffffffff19166020820180517bffffffffffffffffffffffffffffffffffffffffffffffffffffffff8381831617835250505050610ea3565b5050565b60008183610daf91906114fd565b905092915050565b60008183610dc591906114cc565b905092915050565b610e658282604051602401610de3929190611306565b6040516020818303038152906040527fc3b55635000000000000000000000000000000000000000000000000000000007bffffffffffffffffffffffffffffffffffffffffffffffffffffffff19166020820180517bffffffffffffffffffffffffffffffffffffffffffffffffffffffff8381831617835250505050610ea3565b5050565b600081600001549050919050565b60008183610e859190611476565b905092915050565b6001816000016000828254019250508190555050565b60008151905060006a636f6e736f6c652e6c6f679050602083016000808483855afa5050505050565b6040518060600160405280600073ffffffffffffffffffffffffffffffffffffffff16815260200160008152602001600081525090565b600081359050610f128161177d565b92915050565b600081519050610f2781611794565b92915050565b600081359050610f3c816117ab565b92915050565b600081519050610f51816117ab565b92915050565b600060208284031215610f6957600080fd5b6000610f7784828501610f03565b91505092915050565b600060208284031215610f9257600080fd5b6000610fa084828501610f18565b91505092915050565b600060208284031215610fbb57600080fd5b6000610fc984828501610f2d565b91505092915050565b600060208284031215610fe457600080fd5b6000610ff284828501610f42565b91505092915050565b60006110078383611186565b60608301905092915050565b61101c81611557565b82525050565b61102b81611557565b82525050565b600061103c82611431565b6110468185611454565b935061105183611421565b8060005b838110156110825781516110698882610ffb565b975061107483611447565b925050600181019050611055565b5085935050505092915050565b61109881611569565b82525050565b60006110a98261143c565b6110b38185611465565b93506110c381856020860161159f565b6110cc81611679565b840191505092915050565b60006110e4602383611465565b91506110ef8261168a565b604082019050919050565b6000611107601983611465565b9150611112826116d9565b602082019050919050565b600061112a601883611465565b915061113582611702565b602082019050919050565b600061114d601983611465565b91506111588261172b565b602082019050919050565b6000611170600c83611465565b915061117b82611754565b602082019050919050565b60608201600082015161119c6000850182611013565b5060208201516111af60208501826111c8565b5060408201516111c260408501826111c8565b50505050565b6111d181611595565b82525050565b6111e081611595565b82525050565b60006040820190506111fb6000830185611022565b6112086020830184611022565b9392505050565b60006060820190506112246000830186611022565b6112316020830185611022565b61123e60408301846111d7565b949350505050565b600060408201905061125b6000830185611022565b61126860208301846111d7565b9392505050565b60006060820190506112846000830186611022565b61129160208301856111d7565b61129e60408301846111d7565b949350505050565b600060408201905081810360008301526112c08185611031565b90506112cf602083018461108f565b9392505050565b600060408201905081810360008301526112f0818561109e565b90506112ff6020830184611022565b9392505050565b60006040820190508181036000830152611320818561109e565b905061132f602083018461108f565b9392505050565b60006040820190508181036000830152611350818561109e565b905061135f60208301846111d7565b9392505050565b6000602082019050818103600083015261137f816110d7565b9050919050565b6000602082019050818103600083015261139f816110fa565b9050919050565b600060208201905081810360008301526113bf8161111d565b9050919050565b600060208201905081810360008301526113df81611140565b9050919050565b600060208201905081810360008301526113ff81611163565b9050919050565b600060208201905061141b60008301846111d7565b92915050565b6000819050602082019050919050565b600081519050919050565b600081519050919050565b6000602082019050919050565b600082825260208201905092915050565b600082825260208201905092915050565b600061148182611595565b915061148c83611595565b9250827fffffffffffffffffffffffffffffffffffffffffffffffffffffffffffffffff038211156114c1576114c061161b565b5b828201905092915050565b60006114d782611595565b91506114e283611595565b9250826114f2576114f161164a565b5b828204905092915050565b600061150882611595565b915061151383611595565b9250817fffffffffffffffffffffffffffffffffffffffffffffffffffffffffffffffff048311821515161561154c5761154b61161b565b5b828202905092915050565b600061156282611575565b9050919050565b60008115159050919050565b600073ffffffffffffffffffffffffffffffffffffffff82169050919050565b6000819050919050565b60005b838110156115bd5780820151818401526020810190506115a2565b838111156115cc576000848401525b50505050565b60006115dd82611595565b91507fffffffffffffffffffffffffffffffffffffffffffffffffffffffffffffffff8214156116105761160f61161b565b5b600182019050919050565b7f4e487b7100000000000000000000000000000000000000000000000000000000600052601160045260246000fd5b7f4e487b7100000000000000000000000000000000000000000000000000000000600052601260045260246000fd5b6000601f19601f8301169050919050565b7f706f6f6c206e6f7420656e646564207769746864726177206e6f7420616c6c6f60008201527f7765640000000000000000000000000000000000000000000000000000000000602082015250565b7f546f6b656e203220616c6c6f77616e636520746f6f206c6f7700000000000000600082015250565b7f627579546f6b656e207472616e73666572206661696c65640000000000000000600082015250565b7f73656c6c546f6b656e207472616e73666572206661696c656400000000000000600082015250565b7f63726561746f7220737761700000000000000000000000000000000000000000600082015250565b61178681611557565b811461179157600080fd5b50565b61179d81611569565b81146117a857600080fd5b50565b6117b481611595565b81146117bf57600080fd5b5056fea2646970667358221220744aca091eb72ee95a98d4afe02a18150a86458954c7e3d38fae46703dd2fccc64736f6c63430008010033",
  "linkReferences": {},
  "deployedLinkReferences": {}
}