{
  "_format": "hh-sol-artifact-1",
  "contractName": "PoolFactory",
  "sourceName": "contracts/Factory.sol",
  "abi": [
    {
      "anonymous": false,
      "inputs": [
        {
          "indexed": true,
          "internalType": "address",
          "name": "previousOwner",
          "type": "address"
        },
        {
          "indexed": true,
          "internalType": "address",
          "name": "newOwner",
          "type": "address"
        }
      ],
      "name": "OwnershipTransferred",
      "type": "event"
    },
    {
      "anonymous": false,
      "inputs": [
        {
          "indexed": true,
          "internalType": "address",
          "name": "creator",
          "type": "address"
        },
        {
          "indexed": true,
          "internalType": "address",
          "name": "contractAddress",
          "type": "address"
        },
        {
          "indexed": true,
          "internalType": "string",
          "name": "metaData",
          "type": "string"
        }
      ],
      "name": "PoolCreated",
      "type": "event"
    },
    {
      "inputs": [
        {
          "internalType": "address",
          "name": "_buyToken",
          "type": "address"
        },
        {
          "internalType": "address",
          "name": "_sellToken",
          "type": "address"
        },
        {
          "internalType": "uint256",
          "name": "_amount",
          "type": "uint256"
        },
        {
          "internalType": "uint256",
          "name": "_price",
          "type": "uint256"
        },
        {
          "internalType": "uint256",
          "name": "_startTime",
          "type": "uint256"
        },
        {
          "internalType": "uint256",
          "name": "_endTime",
          "type": "uint256"
        }
      ],
      "name": "createPool",
      "outputs": [],
      "stateMutability": "payable",
      "type": "function"
    },
    {
      "inputs": [],
      "name": "getPools",
      "outputs": [
        {
          "components": [
            {
              "internalType": "address",
              "name": "contractAddress",
              "type": "address"
            },
            {
              "internalType": "string",
              "name": "metaDataHash",
              "type": "string"
            },
            {
              "internalType": "address",
              "name": "creator",
              "type": "address"
            },
            {
              "internalType": "address",
              "name": "buyToken",
              "type": "address"
            },
            {
              "internalType": "address",
              "name": "sellToken",
              "type": "address"
            },
            {
              "internalType": "uint256",
              "name": "startTime",
              "type": "uint256"
            },
            {
              "internalType": "uint256",
              "name": "endTime",
              "type": "uint256"
            },
            {
              "internalType": "uint256",
              "name": "price",
              "type": "uint256"
            },
            {
              "internalType": "uint256",
              "name": "raiseAmount",
              "type": "uint256"
            }
          ],
          "internalType": "struct PoolFactory.poolInfo[]",
          "name": "",
          "type": "tuple[]"
        },
        {
          "internalType": "bool",
          "name": "",
          "type": "bool"
        }
      ],
      "stateMutability": "view",
      "type": "function"
    },
    {
      "inputs": [],
      "name": "owner",
      "outputs": [
        {
          "internalType": "address",
          "name": "",
          "type": "address"
        }
      ],
      "stateMutability": "view",
      "type": "function"
    },
    {
      "inputs": [],
      "name": "renounceOwnership",
      "outputs": [],
      "stateMutability": "nonpayable",
      "type": "function"
    },
    {
      "inputs": [
        {
          "internalType": "address",
          "name": "newOwner",
          "type": "address"
        }
      ],
      "name": "transferOwnership",
      "outputs": [],
      "stateMutability": "nonpayable",
      "type": "function"
    }
  ],
  "bytecode": "0x608060405234801561001057600080fd5b5061002d61002261003260201b60201c565b61003a60201b60201c565b6100fe565b600033905090565b60008060009054906101000a900473ffffffffffffffffffffffffffffffffffffffff169050816000806101000a81548173ffffffffffffffffffffffffffffffffffffffff021916908373ffffffffffffffffffffffffffffffffffffffff1602179055508173ffffffffffffffffffffffffffffffffffffffff168173ffffffffffffffffffffffffffffffffffffffff167f8be0079c531659141344cd1fd0a4f28419497f9722a3daafe3b4186f6b6457e060405160405180910390a35050565b612e668061010d6000396000f3fe608060405260043610620000505760003560e01c8063673a2a1f1462000055578063715018a614620000865780638da5cb5b14620000a0578063e48b39f214620000d0578063f2fde38b14620000f0575b600080fd5b3480156200006257600080fd5b506200006d6200011e565b6040516200007d9291906200106d565b60405180910390f35b3480156200009357600080fd5b506200009e62000483565b005b348015620000ad57600080fd5b50620000b862000514565b604051620000c7919062000fd3565b60405180910390f35b620000ee6004803603810190620000e8919062000cad565b6200053d565b005b348015620000fd57600080fd5b506200011c600480360381019062000116919062000c81565b620008fd565b005b606060008060019050600062000135600162000a01565b9050600081905060008167ffffffffffffffff8111156200017f577f4e487b7100000000000000000000000000000000000000000000000000000000600052604160045260246000fd5b604051908082528060200260200182016040528015620001bc57816020015b620001a862000af1565b8152602001906001900390816200019e5790505b5090506000808590505b848111620004725760046000828152602001908152602001600020604051806101200160405290816000820160009054906101000a900473ffffffffffffffffffffffffffffffffffffffff1673ffffffffffffffffffffffffffffffffffffffff1673ffffffffffffffffffffffffffffffffffffffff1681526020016001820180546200025590620011d6565b80601f01602080910402602001604051908101604052809291908181526020018280546200028390620011d6565b8015620002d45780601f10620002a857610100808354040283529160200191620002d4565b820191906000526020600020905b815481529060010190602001808311620002b657829003601f168201915b505050505081526020016002820160009054906101000a900473ffffffffffffffffffffffffffffffffffffffff1673ffffffffffffffffffffffffffffffffffffffff1673ffffffffffffffffffffffffffffffffffffffff1681526020016003820160009054906101000a900473ffffffffffffffffffffffffffffffffffffffff1673ffffffffffffffffffffffffffffffffffffffff1673ffffffffffffffffffffffffffffffffffffffff1681526020016004820160009054906101000a900473ffffffffffffffffffffffffffffffffffffffff1673ffffffffffffffffffffffffffffffffffffffff1673ffffffffffffffffffffffffffffffffffffffff16815260200160058201548152602001600682015481526020016007820154815260200160088201548152505083838151811062000441577f4e487b7100000000000000000000000000000000000000000000000000000000600052603260045260246000fd5b6020026020010181905250818062000459906200120c565b925050808062000469906200120c565b915050620001c6565b508160019650965050505050509091565b6200048d62000a0f565b73ffffffffffffffffffffffffffffffffffffffff16620004ad62000514565b73ffffffffffffffffffffffffffffffffffffffff161462000506576040517f08c379a0000000000000000000000000000000000000000000000000000000008152600401620004fd90620010c3565b60405180910390fd5b62000512600062000a17565b565b60008060009054906101000a900473ffffffffffffffffffffffffffffffffffffffff16905090565b62000549600162000adb565b600033878787878787604051620005609062000b95565b62000572979695949392919062000ff0565b604051809103906000f0801580156200058f573d6000803e3d6000fd5b50905060006040518061012001604052808373ffffffffffffffffffffffffffffffffffffffff1681526020016040518060200160405280600081525081526020013373ffffffffffffffffffffffffffffffffffffffff1681526020018973ffffffffffffffffffffffffffffffffffffffff1681526020018873ffffffffffffffffffffffffffffffffffffffff168152602001858152602001848152602001868152602001878152509050600260003373ffffffffffffffffffffffffffffffffffffffff1673ffffffffffffffffffffffffffffffffffffffff16815260200190815260200160002062000688600162000a01565b90806001815401808255809150506001900390600052602060002001600090919091909150558060046000620006bf600162000a01565b815260200190815260200160002060008201518160000160006101000a81548173ffffffffffffffffffffffffffffffffffffffff021916908373ffffffffffffffffffffffffffffffffffffffff16021790555060208201518160010190805190602001906200073292919062000ba3565b5060408201518160020160006101000a81548173ffffffffffffffffffffffffffffffffffffffff021916908373ffffffffffffffffffffffffffffffffffffffff16021790555060608201518160030160006101000a81548173ffffffffffffffffffffffffffffffffffffffff021916908373ffffffffffffffffffffffffffffffffffffffff16021790555060808201518160040160006101000a81548173ffffffffffffffffffffffffffffffffffffffff021916908373ffffffffffffffffffffffffffffffffffffffff16021790555060a0820151816005015560c0820151816006015560e08201518160070155610100820151816008015590505062000840600162000a01565b600360008473ffffffffffffffffffffffffffffffffffffffff1673ffffffffffffffffffffffffffffffffffffffff16815260200190815260200160002081905550604051620008919062000fbc565b60405180910390208273ffffffffffffffffffffffffffffffffffffffff163373ffffffffffffffffffffffffffffffffffffffff167f497623963d38fe124cbfd29097a076d20afd5f5c879d864c597b14ed16a70e5560405160405180910390a45050505050505050565b6200090762000a0f565b73ffffffffffffffffffffffffffffffffffffffff166200092762000514565b73ffffffffffffffffffffffffffffffffffffffff161462000980576040517f08c379a00000000000000000000000000000000000000000000000000000000081526004016200097790620010c3565b60405180910390fd5b600073ffffffffffffffffffffffffffffffffffffffff168173ffffffffffffffffffffffffffffffffffffffff161415620009f3576040517f08c379a0000000000000000000000000000000000000000000000000000000008152600401620009ea90620010a1565b60405180910390fd5b620009fe8162000a17565b50565b600081600001549050919050565b600033905090565b60008060009054906101000a900473ffffffffffffffffffffffffffffffffffffffff169050816000806101000a81548173ffffffffffffffffffffffffffffffffffffffff021916908373ffffffffffffffffffffffffffffffffffffffff1602179055508173ffffffffffffffffffffffffffffffffffffffff168173ffffffffffffffffffffffffffffffffffffffff167f8be0079c531659141344cd1fd0a4f28419497f9722a3daafe3b4186f6b6457e060405160405180910390a35050565b6001816000016000828254019250508190555050565b604051806101200160405280600073ffffffffffffffffffffffffffffffffffffffff16815260200160608152602001600073ffffffffffffffffffffffffffffffffffffffff168152602001600073ffffffffffffffffffffffffffffffffffffffff168152602001600073ffffffffffffffffffffffffffffffffffffffff168152602001600081526020016000815260200160008152602001600081525090565b611ab8806200137983390190565b82805462000bb190620011d6565b90600052602060002090601f01602090048101928262000bd5576000855562000c21565b82601f1062000bf057805160ff191683800117855562000c21565b8280016001018555821562000c21579182015b8281111562000c2057825182559160200191906001019062000c03565b5b50905062000c30919062000c34565b5090565b5b8082111562000c4f57600081600090555060010162000c35565b5090565b60008135905062000c648162001344565b92915050565b60008135905062000c7b816200135e565b92915050565b60006020828403121562000c9457600080fd5b600062000ca48482850162000c53565b91505092915050565b60008060008060008060c0878903121562000cc757600080fd5b600062000cd789828a0162000c53565b965050602062000cea89828a0162000c53565b955050604062000cfd89828a0162000c6a565b945050606062000d1089828a0162000c6a565b935050608062000d2389828a0162000c6a565b92505060a062000d3689828a0162000c6a565b9150509295509295509295565b600062000d51838362000ec3565b905092915050565b62000d648162001156565b82525050565b62000d758162001156565b82525050565b600062000d8882620010f5565b62000d94818562001118565b93508360208202850162000da885620010e5565b8060005b8581101562000dea578484038952815162000dc8858262000d43565b945062000dd5836200110b565b925060208a0199505060018101905062000dac565b50829750879550505050505092915050565b62000e07816200116a565b82525050565b600062000e1a8262001100565b62000e26818562001129565b935062000e38818560208601620011a0565b62000e4381620012b8565b840191505092915050565b600062000e5d6026836200113a565b915062000e6a82620012c9565b604082019050919050565b600062000e846020836200113a565b915062000e918262001318565b602082019050919050565b600062000eab6000836200114b565b915062000eb88262001341565b600082019050919050565b60006101208301600083015162000ede600086018262000d59565b506020830151848203602086015262000ef8828262000e0d565b915050604083015162000f0f604086018262000d59565b50606083015162000f24606086018262000d59565b50608083015162000f39608086018262000d59565b5060a083015162000f4e60a086018262000f9a565b5060c083015162000f6360c086018262000f9a565b5060e083015162000f7860e086018262000f9a565b5061010083015162000f8f61010086018262000f9a565b508091505092915050565b62000fa58162001196565b82525050565b62000fb68162001196565b82525050565b600062000fc98262000e9c565b9150819050919050565b600060208201905062000fea600083018462000d6a565b92915050565b600060e08201905062001007600083018a62000d6a565b62001016602083018962000d6a565b62001025604083018862000d6a565b62001034606083018762000fab565b62001043608083018662000fab565b6200105260a083018562000fab565b6200106160c083018462000fab565b98975050505050505050565b6000604082019050818103600083015262001089818562000d7b565b90506200109a602083018462000dfc565b9392505050565b60006020820190508181036000830152620010bc8162000e4e565b9050919050565b60006020820190508181036000830152620010de8162000e75565b9050919050565b6000819050602082019050919050565b600081519050919050565b600081519050919050565b6000602082019050919050565b600082825260208201905092915050565b600082825260208201905092915050565b600082825260208201905092915050565b600081905092915050565b6000620011638262001176565b9050919050565b60008115159050919050565b600073ffffffffffffffffffffffffffffffffffffffff82169050919050565b6000819050919050565b60005b83811015620011c0578082015181840152602081019050620011a3565b83811115620011d0576000848401525b50505050565b60006002820490506001821680620011ef57607f821691505b6020821081141562001206576200120562001289565b5b50919050565b6000620012198262001196565b91507fffffffffffffffffffffffffffffffffffffffffffffffffffffffffffffffff8214156200124f576200124e6200125a565b5b600182019050919050565b7f4e487b7100000000000000000000000000000000000000000000000000000000600052601160045260246000fd5b7f4e487b7100000000000000000000000000000000000000000000000000000000600052602260045260246000fd5b6000601f19601f8301169050919050565b7f4f776e61626c653a206e6577206f776e657220697320746865207a65726f206160008201527f6464726573730000000000000000000000000000000000000000000000000000602082015250565b7f4f776e61626c653a2063616c6c6572206973206e6f7420746865206f776e6572600082015250565b50565b6200134f8162001156565b81146200135b57600080fd5b50565b620013698162001196565b81146200137557600080fd5b5056fe60806040523480156200001157600080fd5b5060405162001ab838038062001ab88339818101604052810190620000379190620002d2565b86600160006101000a81548173ffffffffffffffffffffffffffffffffffffffff021916908373ffffffffffffffffffffffffffffffffffffffff16021790555085600260006101000a81548173ffffffffffffffffffffffffffffffffffffffff021916908373ffffffffffffffffffffffffffffffffffffffff16021790555084600360006101000a81548173ffffffffffffffffffffffffffffffffffffffff021916908373ffffffffffffffffffffffffffffffffffffffff160217905550836004819055508260058190555081600781905550806008819055506000600360009054906101000a900473ffffffffffffffffffffffffffffffffffffffff1673ffffffffffffffffffffffffffffffffffffffff166370a08231600160009054906101000a900473ffffffffffffffffffffffffffffffffffffffff166040518263ffffffff1660e01b8152600401620001979190620003e3565b60206040518083038186803b158015620001b057600080fd5b505afa158015620001c5573d6000803e3d6000fd5b505050506040513d601f19601f82011682018060405250810190620001eb91906200037f565b9050620002226127106200020e86886200027460201b62000c691790919060201c565b6200028c60201b62000c7f1790919060201c565b811162000266576040517f08c379a00000000000000000000000000000000000000000000000000000000081526004016200025d9062000400565b60405180910390fd5b5050505050505050620005c5565b600081836200028491906200046b565b905092915050565b600081836200029c919062000433565b905092915050565b600081519050620002b58162000591565b92915050565b600081519050620002cc81620005ab565b92915050565b600080600080600080600060e0888a031215620002ee57600080fd5b6000620002fe8a828b01620002a4565b9750506020620003118a828b01620002a4565b9650506040620003248a828b01620002a4565b9550506060620003378a828b01620002bb565b94505060806200034a8a828b01620002bb565b93505060a06200035d8a828b01620002bb565b92505060c0620003708a828b01620002bb565b91505092959891949750929550565b6000602082840312156200039257600080fd5b6000620003a284828501620002bb565b91505092915050565b620003b681620004cc565b82525050565b6000620003cb60158362000422565b9150620003d88262000568565b602082019050919050565b6000602082019050620003fa6000830184620003ab565b92915050565b600060208201905081810360008301526200041b81620003bc565b9050919050565b600082825260208201905092915050565b6000620004408262000500565b91506200044d8362000500565b92508262000460576200045f62000539565b5b828204905092915050565b6000620004788262000500565b9150620004858362000500565b9250817fffffffffffffffffffffffffffffffffffffffffffffffffffffffffffffffff0483118215151615620004c157620004c06200050a565b5b828202905092915050565b6000620004d982620004e0565b9050919050565b600073ffffffffffffffffffffffffffffffffffffffff82169050919050565b6000819050919050565b7f4e487b7100000000000000000000000000000000000000000000000000000000600052601160045260246000fd5b7f4e487b7100000000000000000000000000000000000000000000000000000000600052601260045260246000fd5b7f6e6f7420656e6f7567682073656c6c20746f6b656e0000000000000000000000600082015250565b6200059c81620004cc565b8114620005a857600080fd5b50565b620005b68162000500565b8114620005c257600080fd5b50565b6114e380620005d56000396000f3fe6080604052600436106100555760003560e01c806312065fe01461005a5780631b26c80d1461008557806327e235e3146100b15780633a2891d8146100ee5780633ccfd60b1461012d578063f7618dae14610144575b600080fd5b34801561006657600080fd5b5061006f610160565b60405161007c9190611140565b60405180910390f35b34801561009157600080fd5b5061009a6101a7565b6040516100a8929190611070565b60405180910390f35b3480156100bd57600080fd5b506100d860048036038101906100d39190610d5a565b610347565b6040516100e59190611140565b60405180910390f35b3480156100fa57600080fd5b5061011560048036038101906101109190610dac565b61035f565b60405161012493929190611039565b60405180910390f35b34801561013957600080fd5b506101426103a9565b005b61015e60048036038101906101599190610dac565b610629565b005b6000600b60003373ffffffffffffffffffffffffffffffffffffffff1673ffffffffffffffffffffffffffffffffffffffff16815260200190815260200160002054905090565b60606000806001905060006101bc6000610c95565b905060008167ffffffffffffffff811115610200577f4e487b7100000000000000000000000000000000000000000000000000000000600052604160045260246000fd5b60405190808252806020026020018201604052801561023957816020015b610226610ccf565b81526020019060019003908161021e5790505b5090506000808490505b83811161033757600a60008281526020019081526020016000206040518060600160405290816000820160009054906101000a900473ffffffffffffffffffffffffffffffffffffffff1673ffffffffffffffffffffffffffffffffffffffff1673ffffffffffffffffffffffffffffffffffffffff1681526020016001820154815260200160028201548152505083838151811061030b577f4e487b7100000000000000000000000000000000000000000000000000000000600052603260045260246000fd5b60200260200101819052508180610321906112ce565b925050808061032f906112ce565b915050610243565b5081600195509550505050509091565b600b6020528060005260406000206000915090505481565b600a6020528060005260406000206000915090508060000160009054906101000a900473ffffffffffffffffffffffffffffffffffffffff16908060010154908060020154905083565b60085442116103ed576040517f08c379a00000000000000000000000000000000000000000000000000000000081526004016103e4906110a0565b60405180910390fd5b600160009054906101000a900473ffffffffffffffffffffffffffffffffffffffff1673ffffffffffffffffffffffffffffffffffffffff163373ffffffffffffffffffffffffffffffffffffffff16141561053757600260009054906101000a900473ffffffffffffffffffffffffffffffffffffffff1673ffffffffffffffffffffffffffffffffffffffff1663a9059cbb33600b60003373ffffffffffffffffffffffffffffffffffffffff1673ffffffffffffffffffffffffffffffffffffffff168152602001908152602001600020546040518363ffffffff1660e01b81526004016104df929190611010565b602060405180830381600087803b1580156104f957600080fd5b505af115801561050d573d6000803e3d6000fd5b505050506040513d601f19601f820116820180604052508101906105319190610d83565b50610627565b600360009054906101000a900473ffffffffffffffffffffffffffffffffffffffff1673ffffffffffffffffffffffffffffffffffffffff1663a9059cbb33600b60003373ffffffffffffffffffffffffffffffffffffffff1673ffffffffffffffffffffffffffffffffffffffff168152602001908152602001600020546040518363ffffffff1660e01b81526004016105d3929190611010565b602060405180830381600087803b1580156105ed57600080fd5b505af1158015610601573d6000803e3d6000fd5b505050506040513d601f19601f820116820180604052508101906106259190610d83565b505b565b600160009054906101000a900473ffffffffffffffffffffffffffffffffffffffff1673ffffffffffffffffffffffffffffffffffffffff163373ffffffffffffffffffffffffffffffffffffffff1614156106ba576040517f08c379a00000000000000000000000000000000000000000000000000000000081526004016106b190611120565b60405180910390fd5b80600260009054906101000a900473ffffffffffffffffffffffffffffffffffffffff1673ffffffffffffffffffffffffffffffffffffffff1663dd62ed3e33306040518363ffffffff1660e01b8152600401610718929190610fb0565b60206040518083038186803b15801561073057600080fd5b505afa158015610744573d6000803e3d6000fd5b505050506040513d601f19601f820116820180604052508101906107689190610dd5565b10156107a9576040517f08c379a00000000000000000000000000000000000000000000000000000000081526004016107a0906110c0565b60405180910390fd5b6000600260009054906101000a900473ffffffffffffffffffffffffffffffffffffffff1673ffffffffffffffffffffffffffffffffffffffff166323b872dd3330856040518463ffffffff1660e01b815260040161080a93929190610fd9565b602060405180830381600087803b15801561082457600080fd5b505af1158015610838573d6000803e3d6000fd5b505050506040513d601f19601f8201168201806040525081019061085c9190610d83565b90508061089e576040517f08c379a0000000000000000000000000000000000000000000000000000000008152600401610895906110e0565b60405180910390fd5b600360009054906101000a900473ffffffffffffffffffffffffffffffffffffffff1673ffffffffffffffffffffffffffffffffffffffff166323b872dd600160009054906101000a900473ffffffffffffffffffffffffffffffffffffffff163061092961271061091b60055489610c6990919063ffffffff16565b610c7f90919063ffffffff16565b6040518463ffffffff1660e01b815260040161094793929190610fd9565b602060405180830381600087803b15801561096157600080fd5b505af1158015610975573d6000803e3d6000fd5b505050506040513d601f19601f820116820180604052508101906109999190610d83565b9050806109db576040517f08c379a00000000000000000000000000000000000000000000000000000000081526004016109d290611100565b60405180910390fd5b610a4f82600b6000600160009054906101000a900473ffffffffffffffffffffffffffffffffffffffff1673ffffffffffffffffffffffffffffffffffffffff1673ffffffffffffffffffffffffffffffffffffffff16815260200190815260200160002054610ca390919063ffffffff16565b600b6000600160009054906101000a900473ffffffffffffffffffffffffffffffffffffffff1673ffffffffffffffffffffffffffffffffffffffff1673ffffffffffffffffffffffffffffffffffffffff16815260200190815260200160002081905550610b2e610ae0612710610ad260055486610c6990919063ffffffff16565b610c7f90919063ffffffff16565b600b60003373ffffffffffffffffffffffffffffffffffffffff1673ffffffffffffffffffffffffffffffffffffffff16815260200190815260200160002054610ca390919063ffffffff16565b600b60003373ffffffffffffffffffffffffffffffffffffffff1673ffffffffffffffffffffffffffffffffffffffff16815260200190815260200160002081905550600060405180606001604052803373ffffffffffffffffffffffffffffffffffffffff168152602001848152602001428152509050610bb06000610cb9565b80600a6000610bbf6000610c95565b815260200190815260200160002060008201518160000160006101000a81548173ffffffffffffffffffffffffffffffffffffffff021916908373ffffffffffffffffffffffffffffffffffffffff16021790555060208201518160010155604082015181600201559050507ffc2d02c51e8503683ba013f22fd4ed424857a077f34daf29a2ea3e0fcee0b8ea3384604051610c5c929190611010565b60405180910390a1505050565b60008183610c77919061122c565b905092915050565b60008183610c8d91906111fb565b905092915050565b600081600001549050919050565b60008183610cb191906111a5565b905092915050565b6001816000016000828254019250508190555050565b6040518060600160405280600073ffffffffffffffffffffffffffffffffffffffff16815260200160008152602001600081525090565b600081359050610d1581611468565b92915050565b600081519050610d2a8161147f565b92915050565b600081359050610d3f81611496565b92915050565b600081519050610d5481611496565b92915050565b600060208284031215610d6c57600080fd5b6000610d7a84828501610d06565b91505092915050565b600060208284031215610d9557600080fd5b6000610da384828501610d1b565b91505092915050565b600060208284031215610dbe57600080fd5b6000610dcc84828501610d30565b91505092915050565b600060208284031215610de757600080fd5b6000610df584828501610d45565b91505092915050565b6000610e0a8383610f50565b60608301905092915050565b610e1f81611286565b82525050565b610e2e81611286565b82525050565b6000610e3f8261116b565b610e498185611183565b9350610e548361115b565b8060005b83811015610e85578151610e6c8882610dfe565b9750610e7783611176565b925050600181019050610e58565b5085935050505092915050565b610e9b81611298565b82525050565b6000610eae602383611194565b9150610eb982611375565b604082019050919050565b6000610ed1601983611194565b9150610edc826113c4565b602082019050919050565b6000610ef4601883611194565b9150610eff826113ed565b602082019050919050565b6000610f17601983611194565b9150610f2282611416565b602082019050919050565b6000610f3a600c83611194565b9150610f458261143f565b602082019050919050565b606082016000820151610f666000850182610e16565b506020820151610f796020850182610f92565b506040820151610f8c6040850182610f92565b50505050565b610f9b816112c4565b82525050565b610faa816112c4565b82525050565b6000604082019050610fc56000830185610e25565b610fd26020830184610e25565b9392505050565b6000606082019050610fee6000830186610e25565b610ffb6020830185610e25565b6110086040830184610fa1565b949350505050565b60006040820190506110256000830185610e25565b6110326020830184610fa1565b9392505050565b600060608201905061104e6000830186610e25565b61105b6020830185610fa1565b6110686040830184610fa1565b949350505050565b6000604082019050818103600083015261108a8185610e34565b90506110996020830184610e92565b9392505050565b600060208201905081810360008301526110b981610ea1565b9050919050565b600060208201905081810360008301526110d981610ec4565b9050919050565b600060208201905081810360008301526110f981610ee7565b9050919050565b6000602082019050818103600083015261111981610f0a565b9050919050565b6000602082019050818103600083015261113981610f2d565b9050919050565b60006020820190506111556000830184610fa1565b92915050565b6000819050602082019050919050565b600081519050919050565b6000602082019050919050565b600082825260208201905092915050565b600082825260208201905092915050565b60006111b0826112c4565b91506111bb836112c4565b9250827fffffffffffffffffffffffffffffffffffffffffffffffffffffffffffffffff038211156111f0576111ef611317565b5b828201905092915050565b6000611206826112c4565b9150611211836112c4565b92508261122157611220611346565b5b828204905092915050565b6000611237826112c4565b9150611242836112c4565b9250817fffffffffffffffffffffffffffffffffffffffffffffffffffffffffffffffff048311821515161561127b5761127a611317565b5b828202905092915050565b6000611291826112a4565b9050919050565b60008115159050919050565b600073ffffffffffffffffffffffffffffffffffffffff82169050919050565b6000819050919050565b60006112d9826112c4565b91507fffffffffffffffffffffffffffffffffffffffffffffffffffffffffffffffff82141561130c5761130b611317565b5b600182019050919050565b7f4e487b7100000000000000000000000000000000000000000000000000000000600052601160045260246000fd5b7f4e487b7100000000000000000000000000000000000000000000000000000000600052601260045260246000fd5b7f706f6f6c206e6f7420656e646564207769746864726177206e6f7420616c6c6f60008201527f7765640000000000000000000000000000000000000000000000000000000000602082015250565b7f546f6b656e203220616c6c6f77616e636520746f6f206c6f7700000000000000600082015250565b7f627579546f6b656e207472616e73666572206661696c65640000000000000000600082015250565b7f73656c6c546f6b656e207472616e73666572206661696c656400000000000000600082015250565b7f63726561746f7220737761700000000000000000000000000000000000000000600082015250565b61147181611286565b811461147c57600080fd5b50565b61148881611298565b811461149357600080fd5b50565b61149f816112c4565b81146114aa57600080fd5b5056fea2646970667358221220a9357fb61f5615b359576ea2897f18f48ee0611b5f98ca3efabea80adb74e94664736f6c63430008010033a264697066735822122027fb3c3130939cf1f872761ee05de742698e0e543225da9224545d4c5f8900c864736f6c63430008010033",
  "linkReferences": {},
  "deployedLinkReferences": {}
}