{
  "_format": "hh-sol-artifact-1",
  "contractName": "Token",
  "sourceName": "contracts/Token.sol",
  "abi": [
    {
      "inputs": [
        {
          "internalType": "string",
          "name": "name",
          "type": "string"
        },
        {
          "internalType": "string",
          "name": "symbol",
          "type": "string"
        },
        {
          "internalType": "uint256",
          "name": "initialSupply",
          "type": "uint256"
        }
      ],
      "stateMutability": "nonpayable",
      "type": "constructor"
    },
    {
      "anonymous": false,
      "inputs": [
        {
          "indexed": true,
          "internalType": "address",
          "name": "owner",
          "type": "address"
        },
        {
          "indexed": true,
          "internalType": "address",
          "name": "spender",
          "type": "address"
        },
        {
          "indexed": false,
          "internalType": "uint256",
          "name": "value",
          "type": "uint256"
        }
      ],
      "name": "Approval",
      "type": "event"
    },
    {
      "anonymous": false,
      "inputs": [
        {
          "indexed": true,
          "internalType": "address",
          "name": "from",
          "type": "address"
        },
        {
          "indexed": true,
          "internalType": "address",
          "name": "to",
          "type": "address"
        },
        {
          "indexed": false,
          "internalType": "uint256",
          "name": "value",
          "type": "uint256"
        }
      ],
      "name": "Transfer",
      "type": "event"
    },
    {
      "inputs": [
        {
          "internalType": "address",
          "name": "owner",
          "type": "address"
        },
        {
          "internalType": "address",
          "name": "spender",
          "type": "address"
        }
      ],
      "name": "allowance",
      "outputs": [
        {
          "internalType": "uint256",
          "name": "",
          "type": "uint256"
        }
      ],
      "stateMutability": "view",
      "type": "function"
    },
    {
      "inputs": [
        {
          "internalType": "address",
          "name": "spender",
          "type": "address"
        },
        {
          "internalType": "uint256",
          "name": "amount",
          "type": "uint256"
        }
      ],
      "name": "approve",
      "outputs": [
        {
          "internalType": "bool",
          "name": "",
          "type": "bool"
        }
      ],
      "stateMutability": "nonpayable",
      "type": "function"
    },
    {
      "inputs": [
        {
          "internalType": "address",
          "name": "account",
          "type": "address"
        }
      ],
      "name": "balanceOf",
      "outputs": [
        {
          "internalType": "uint256",
          "name": "",
          "type": "uint256"
        }
      ],
      "stateMutability": "view",
      "type": "function"
    },
    {
      "inputs": [],
      "name": "decimals",
      "outputs": [
        {
          "internalType": "uint8",
          "name": "",
          "type": "uint8"
        }
      ],
      "stateMutability": "view",
      "type": "function"
    },
    {
      "inputs": [
        {
          "internalType": "address",
          "name": "spender",
          "type": "address"
        },
        {
          "internalType": "uint256",
          "name": "subtractedValue",
          "type": "uint256"
        }
      ],
      "name": "decreaseAllowance",
      "outputs": [
        {
          "internalType": "bool",
          "name": "",
          "type": "bool"
        }
      ],
      "stateMutability": "nonpayable",
      "type": "function"
    },
    {
      "inputs": [],
      "name": "faucet",
      "outputs": [],
      "stateMutability": "payable",
      "type": "function"
    },
    {
      "inputs": [
        {
          "internalType": "address",
          "name": "spender",
          "type": "address"
        },
        {
          "internalType": "uint256",
          "name": "addedValue",
          "type": "uint256"
        }
      ],
      "name": "increaseAllowance",
      "outputs": [
        {
          "internalType": "bool",
          "name": "",
          "type": "bool"
        }
      ],
      "stateMutability": "nonpayable",
      "type": "function"
    },
    {
      "inputs": [
        {
          "internalType": "address",
          "name": "to",
          "type": "address"
        },
        {
          "internalType": "uint256",
          "name": "amount",
          "type": "uint256"
        }
      ],
      "name": "mint",
      "outputs": [],
      "stateMutability": "nonpayable",
      "type": "function"
    },
    {
      "inputs": [],
      "name": "name",
      "outputs": [
        {
          "internalType": "string",
          "name": "",
          "type": "string"
        }
      ],
      "stateMutability": "view",
      "type": "function"
    },
    {
      "inputs": [],
      "name": "symbol",
      "outputs": [
        {
          "internalType": "string",
          "name": "",
          "type": "string"
        }
      ],
      "stateMutability": "view",
      "type": "function"
    },
    {
      "inputs": [],
      "name": "totalSupply",
      "outputs": [
        {
          "internalType": "uint256",
          "name": "",
          "type": "uint256"
        }
      ],
      "stateMutability": "view",
      "type": "function"
    },
    {
      "inputs": [
        {
          "internalType": "address",
          "name": "to",
          "type": "address"
        },
        {
          "internalType": "uint256",
          "name": "amount",
          "type": "uint256"
        }
      ],
      "name": "transfer",
      "outputs": [
        {
          "internalType": "bool",
          "name": "",
          "type": "bool"
        }
      ],
      "stateMutability": "nonpayable",
      "type": "function"
    },
    {
      "inputs": [
        {
          "internalType": "address",
          "name": "from",
          "type": "address"
        },
        {
          "internalType": "address",
          "name": "to",
          "type": "address"
        },
        {
          "internalType": "uint256",
          "name": "amount",
          "type": "uint256"
        }
      ],
      "name": "transferFrom",
      "outputs": [
        {
          "internalType": "bool",
          "name": "",
          "type": "bool"
        }
      ],
      "stateMutability": "nonpayable",
      "type": "function"
    }
  ],
  "bytecode": "0x60806040523480156200001157600080fd5b5060405162001d2738038062001d27833981810160405281019062000037919062000359565b828281600390805190602001906200005192919062000220565b5080600490805190602001906200006a92919062000220565b5050506200009433670de0b6b3a76400008362000088919062000525565b6200009d60201b60201c565b50505062000713565b600073ffffffffffffffffffffffffffffffffffffffff168273ffffffffffffffffffffffffffffffffffffffff16141562000110576040517f08c379a0000000000000000000000000000000000000000000000000000000008152600401620001079062000419565b60405180910390fd5b62000124600083836200021660201b60201c565b8060026000828254620001389190620004c8565b92505081905550806000808473ffffffffffffffffffffffffffffffffffffffff1673ffffffffffffffffffffffffffffffffffffffff16815260200190815260200160002060008282546200018f9190620004c8565b925050819055508173ffffffffffffffffffffffffffffffffffffffff16600073ffffffffffffffffffffffffffffffffffffffff167fddf252ad1be2c89b69c2b068fc378daa952ba7f163c4a11628f55a4df523b3ef83604051620001f691906200043b565b60405180910390a362000212600083836200021b60201b60201c565b5050565b505050565b505050565b8280546200022e90620005c6565b90600052602060002090601f0160209004810192826200025257600085556200029e565b82601f106200026d57805160ff19168380011785556200029e565b828001600101855582156200029e579182015b828111156200029d57825182559160200191906001019062000280565b5b509050620002ad9190620002b1565b5090565b5b80821115620002cc576000816000905550600101620002b2565b5090565b6000620002e7620002e18462000481565b62000458565b9050828152602081018484840111156200030057600080fd5b6200030d84828562000590565b509392505050565b600082601f8301126200032757600080fd5b815162000339848260208601620002d0565b91505092915050565b6000815190506200035381620006f9565b92915050565b6000806000606084860312156200036f57600080fd5b600084015167ffffffffffffffff8111156200038a57600080fd5b620003988682870162000315565b935050602084015167ffffffffffffffff811115620003b657600080fd5b620003c48682870162000315565b9250506040620003d78682870162000342565b9150509250925092565b6000620003f0601f83620004b7565b9150620003fd82620006d0565b602082019050919050565b620004138162000586565b82525050565b600060208201905081810360008301526200043481620003e1565b9050919050565b600060208201905062000452600083018462000408565b92915050565b60006200046462000477565b9050620004728282620005fc565b919050565b6000604051905090565b600067ffffffffffffffff8211156200049f576200049e62000690565b5b620004aa82620006bf565b9050602081019050919050565b600082825260208201905092915050565b6000620004d58262000586565b9150620004e28362000586565b9250827fffffffffffffffffffffffffffffffffffffffffffffffffffffffffffffffff038211156200051a576200051962000632565b5b828201905092915050565b6000620005328262000586565b91506200053f8362000586565b9250817fffffffffffffffffffffffffffffffffffffffffffffffffffffffffffffffff04831182151516156200057b576200057a62000632565b5b828202905092915050565b6000819050919050565b60005b83811015620005b057808201518184015260208101905062000593565b83811115620005c0576000848401525b50505050565b60006002820490506001821680620005df57607f821691505b60208210811415620005f657620005f562000661565b5b50919050565b6200060782620006bf565b810181811067ffffffffffffffff8211171562000629576200062862000690565b5b80604052505050565b7f4e487b7100000000000000000000000000000000000000000000000000000000600052601160045260246000fd5b7f4e487b7100000000000000000000000000000000000000000000000000000000600052602260045260246000fd5b7f4e487b7100000000000000000000000000000000000000000000000000000000600052604160045260246000fd5b6000601f19601f8301169050919050565b7f45524332303a206d696e7420746f20746865207a65726f206164647265737300600082015250565b620007048162000586565b81146200071057600080fd5b50565b61160480620007236000396000f3fe6080604052600436106100c25760003560e01c806340c10f191161007f578063a457c2d711610059578063a457c2d714610290578063a9059cbb146102cd578063dd62ed3e1461030a578063de5f72fd14610347576100c2565b806340c10f19146101ff57806370a082311461022857806395d89b4114610265576100c2565b806306fdde03146100c7578063095ea7b3146100f257806318160ddd1461012f57806323b872dd1461015a578063313ce5671461019757806339509351146101c2575b600080fd5b3480156100d357600080fd5b506100dc610351565b6040516100e99190611081565b60405180910390f35b3480156100fe57600080fd5b5061011960048036038101906101149190610eac565b6103e3565b6040516101269190611066565b60405180910390f35b34801561013b57600080fd5b50610144610406565b60405161015191906111a3565b60405180910390f35b34801561016657600080fd5b50610181600480360381019061017c9190610e5d565b610410565b60405161018e9190611066565b60405180910390f35b3480156101a357600080fd5b506101ac61043f565b6040516101b991906111be565b60405180910390f35b3480156101ce57600080fd5b506101e960048036038101906101e49190610eac565b610448565b6040516101f69190611066565b60405180910390f35b34801561020b57600080fd5b5061022660048036038101906102219190610eac565b6104f2565b005b34801561023457600080fd5b5061024f600480360381019061024a9190610df8565b610500565b60405161025c91906111a3565b60405180910390f35b34801561027157600080fd5b5061027a610548565b6040516102879190611081565b60405180910390f35b34801561029c57600080fd5b506102b760048036038101906102b29190610eac565b6105da565b6040516102c49190611066565b60405180910390f35b3480156102d957600080fd5b506102f460048036038101906102ef9190610eac565b6106c4565b6040516103019190611066565b60405180910390f35b34801561031657600080fd5b50610331600480360381019061032c9190610e21565b6106e7565b60405161033e91906111a3565b60405180910390f35b61034f61076e565b005b606060038054610360906112d3565b80601f016020809104026020016040519081016040528092919081815260200182805461038c906112d3565b80156103d95780601f106103ae576101008083540402835291602001916103d9565b820191906000526020600020905b8154815290600101906020018083116103bc57829003601f168201915b5050505050905090565b6000806103ee610784565b90506103fb81858561078c565b600191505092915050565b6000600254905090565b60008061041b610784565b9050610428858285610957565b6104338585856109e3565b60019150509392505050565b60006012905090565b600080610453610784565b90506104e7818585600160008673ffffffffffffffffffffffffffffffffffffffff1673ffffffffffffffffffffffffffffffffffffffff16815260200190815260200160002060008973ffffffffffffffffffffffffffffffffffffffff1673ffffffffffffffffffffffffffffffffffffffff168152602001908152602001600020546104e291906111f5565b61078c565b600191505092915050565b6104fc8282610c64565b5050565b60008060008373ffffffffffffffffffffffffffffffffffffffff1673ffffffffffffffffffffffffffffffffffffffff168152602001908152602001600020549050919050565b606060048054610557906112d3565b80601f0160208091040260200160405190810160405280929190818152602001828054610583906112d3565b80156105d05780601f106105a5576101008083540402835291602001916105d0565b820191906000526020600020905b8154815290600101906020018083116105b357829003601f168201915b5050505050905090565b6000806105e5610784565b90506000600160008373ffffffffffffffffffffffffffffffffffffffff1673ffffffffffffffffffffffffffffffffffffffff16815260200190815260200160002060008673ffffffffffffffffffffffffffffffffffffffff1673ffffffffffffffffffffffffffffffffffffffff168152602001908152602001600020549050838110156106ab576040517f08c379a00000000000000000000000000000000000000000000000000000000081526004016106a290611163565b60405180910390fd5b6106b8828686840361078c565b60019250505092915050565b6000806106cf610784565b90506106dc8185856109e3565b600191505092915050565b6000600160008473ffffffffffffffffffffffffffffffffffffffff1673ffffffffffffffffffffffffffffffffffffffff16815260200190815260200160002060008373ffffffffffffffffffffffffffffffffffffffff1673ffffffffffffffffffffffffffffffffffffffff16815260200190815260200160002054905092915050565b6107823369021e19e0c9bab2400000610c64565b565b600033905090565b600073ffffffffffffffffffffffffffffffffffffffff168373ffffffffffffffffffffffffffffffffffffffff1614156107fc576040517f08c379a00000000000000000000000000000000000000000000000000000000081526004016107f390611143565b60405180910390fd5b600073ffffffffffffffffffffffffffffffffffffffff168273ffffffffffffffffffffffffffffffffffffffff16141561086c576040517f08c379a0000000000000000000000000000000000000000000000000000000008152600401610863906110c3565b60405180910390fd5b80600160008573ffffffffffffffffffffffffffffffffffffffff1673ffffffffffffffffffffffffffffffffffffffff16815260200190815260200160002060008473ffffffffffffffffffffffffffffffffffffffff1673ffffffffffffffffffffffffffffffffffffffff168152602001908152602001600020819055508173ffffffffffffffffffffffffffffffffffffffff168373ffffffffffffffffffffffffffffffffffffffff167f8c5be1e5ebec7d5bd14f71427d1e84f3dd0314c0f7b2291e5b200ac8c7c3b9258360405161094a91906111a3565b60405180910390a3505050565b600061096384846106e7565b90507fffffffffffffffffffffffffffffffffffffffffffffffffffffffffffffffff81146109dd57818110156109cf576040517f08c379a00000000000000000000000000000000000000000000000000000000081526004016109c6906110e3565b60405180910390fd5b6109dc848484840361078c565b5b50505050565b600073ffffffffffffffffffffffffffffffffffffffff168373ffffffffffffffffffffffffffffffffffffffff161415610a53576040517f08c379a0000000000000000000000000000000000000000000000000000000008152600401610a4a90611123565b60405180910390fd5b600073ffffffffffffffffffffffffffffffffffffffff168273ffffffffffffffffffffffffffffffffffffffff161415610ac3576040517f08c379a0000000000000000000000000000000000000000000000000000000008152600401610aba906110a3565b60405180910390fd5b610ace838383610dc4565b60008060008573ffffffffffffffffffffffffffffffffffffffff1673ffffffffffffffffffffffffffffffffffffffff16815260200190815260200160002054905081811015610b54576040517f08c379a0000000000000000000000000000000000000000000000000000000008152600401610b4b90611103565b60405180910390fd5b8181036000808673ffffffffffffffffffffffffffffffffffffffff1673ffffffffffffffffffffffffffffffffffffffff16815260200190815260200160002081905550816000808573ffffffffffffffffffffffffffffffffffffffff1673ffffffffffffffffffffffffffffffffffffffff1681526020019081526020016000206000828254610be791906111f5565b925050819055508273ffffffffffffffffffffffffffffffffffffffff168473ffffffffffffffffffffffffffffffffffffffff167fddf252ad1be2c89b69c2b068fc378daa952ba7f163c4a11628f55a4df523b3ef84604051610c4b91906111a3565b60405180910390a3610c5e848484610dc9565b50505050565b600073ffffffffffffffffffffffffffffffffffffffff168273ffffffffffffffffffffffffffffffffffffffff161415610cd4576040517f08c379a0000000000000000000000000000000000000000000000000000000008152600401610ccb90611183565b60405180910390fd5b610ce060008383610dc4565b8060026000828254610cf291906111f5565b92505081905550806000808473ffffffffffffffffffffffffffffffffffffffff1673ffffffffffffffffffffffffffffffffffffffff1681526020019081526020016000206000828254610d4791906111f5565b925050819055508173ffffffffffffffffffffffffffffffffffffffff16600073ffffffffffffffffffffffffffffffffffffffff167fddf252ad1be2c89b69c2b068fc378daa952ba7f163c4a11628f55a4df523b3ef83604051610dac91906111a3565b60405180910390a3610dc060008383610dc9565b5050565b505050565b505050565b600081359050610ddd816115a0565b92915050565b600081359050610df2816115b7565b92915050565b600060208284031215610e0a57600080fd5b6000610e1884828501610dce565b91505092915050565b60008060408385031215610e3457600080fd5b6000610e4285828601610dce565b9250506020610e5385828601610dce565b9150509250929050565b600080600060608486031215610e7257600080fd5b6000610e8086828701610dce565b9350506020610e9186828701610dce565b9250506040610ea286828701610de3565b9150509250925092565b60008060408385031215610ebf57600080fd5b6000610ecd85828601610dce565b9250506020610ede85828601610de3565b9150509250929050565b610ef18161125d565b82525050565b6000610f02826111d9565b610f0c81856111e4565b9350610f1c8185602086016112a0565b610f2581611363565b840191505092915050565b6000610f3d6023836111e4565b9150610f4882611374565b604082019050919050565b6000610f606022836111e4565b9150610f6b826113c3565b604082019050919050565b6000610f83601d836111e4565b9150610f8e82611412565b602082019050919050565b6000610fa66026836111e4565b9150610fb18261143b565b604082019050919050565b6000610fc96025836111e4565b9150610fd48261148a565b604082019050919050565b6000610fec6024836111e4565b9150610ff7826114d9565b604082019050919050565b600061100f6025836111e4565b915061101a82611528565b604082019050919050565b6000611032601f836111e4565b915061103d82611577565b602082019050919050565b61105181611289565b82525050565b61106081611293565b82525050565b600060208201905061107b6000830184610ee8565b92915050565b6000602082019050818103600083015261109b8184610ef7565b905092915050565b600060208201905081810360008301526110bc81610f30565b9050919050565b600060208201905081810360008301526110dc81610f53565b9050919050565b600060208201905081810360008301526110fc81610f76565b9050919050565b6000602082019050818103600083015261111c81610f99565b9050919050565b6000602082019050818103600083015261113c81610fbc565b9050919050565b6000602082019050818103600083015261115c81610fdf565b9050919050565b6000602082019050818103600083015261117c81611002565b9050919050565b6000602082019050818103600083015261119c81611025565b9050919050565b60006020820190506111b86000830184611048565b92915050565b60006020820190506111d36000830184611057565b92915050565b600081519050919050565b600082825260208201905092915050565b600061120082611289565b915061120b83611289565b9250827fffffffffffffffffffffffffffffffffffffffffffffffffffffffffffffffff038211156112405761123f611305565b5b828201905092915050565b600061125682611269565b9050919050565b60008115159050919050565b600073ffffffffffffffffffffffffffffffffffffffff82169050919050565b6000819050919050565b600060ff82169050919050565b60005b838110156112be5780820151818401526020810190506112a3565b838111156112cd576000848401525b50505050565b600060028204905060018216806112eb57607f821691505b602082108114156112ff576112fe611334565b5b50919050565b7f4e487b7100000000000000000000000000000000000000000000000000000000600052601160045260246000fd5b7f4e487b7100000000000000000000000000000000000000000000000000000000600052602260045260246000fd5b6000601f19601f8301169050919050565b7f45524332303a207472616e7366657220746f20746865207a65726f206164647260008201527f6573730000000000000000000000000000000000000000000000000000000000602082015250565b7f45524332303a20617070726f766520746f20746865207a65726f20616464726560008201527f7373000000000000000000000000000000000000000000000000000000000000602082015250565b7f45524332303a20696e73756666696369656e7420616c6c6f77616e6365000000600082015250565b7f45524332303a207472616e7366657220616d6f756e742065786365656473206260008201527f616c616e63650000000000000000000000000000000000000000000000000000602082015250565b7f45524332303a207472616e736665722066726f6d20746865207a65726f20616460008201527f6472657373000000000000000000000000000000000000000000000000000000602082015250565b7f45524332303a20617070726f76652066726f6d20746865207a65726f2061646460008201527f7265737300000000000000000000000000000000000000000000000000000000602082015250565b7f45524332303a2064656372656173656420616c6c6f77616e63652062656c6f7760008201527f207a65726f000000000000000000000000000000000000000000000000000000602082015250565b7f45524332303a206d696e7420746f20746865207a65726f206164647265737300600082015250565b6115a98161124b565b81146115b457600080fd5b50565b6115c081611289565b81146115cb57600080fd5b5056fea2646970667358221220d045900317c33e8b373c50334ab6168f9355a263c9417190604556f02700737464736f6c63430008010033",
  "linkReferences": {},
  "deployedLinkReferences": {}
}